:1000000040910020796002006F7F0300656002006C
:10001000656002006560020065600200000000008B
:100020000000000000000000000000003962020033
:100030006560020000000000D561020065600200FA
:10004000196402002BA9030019640200196402005C
:1000500019640200196402001964020019640200A4
:10006000E1A80300196402001964020015A9030045
:100070001964020019640200196402001964020084
:100080001964020019640200196402001964020074
:100090001964020019640200196402001964020064
:1000A0001964020019640200196402001964020054
:1000B0001964020019640200196402001964020044
:1000C0001964020019640200196402001964020034
:1000D0001964020019640200196402001964020024
:1000E0001964020019640200196402001964020014
:1000F0001964020019640200196402001964020004
:1001000081F0004102E000BF83F0004330B54FEAC8
:1001100041044FEA430594EA050F08BF90EA020F35
:100120001FBF54EA000C55EA020C7FEA645C7FEAC8
:10013000655C00F0E2804FEA5454D4EB5555B8BFEB
:100140006D420CDD2C4480EA020281EA030382EA5C
:10015000000083EA010180EA020281EA0303362DEE
:1001600088BF30BD11F0004F4FEA01314FF4801CC1
:100170004CEA113102D0404261EB410113F0004FD3
:100180004FEA03334CEA133302D0524263EB43038A
:1001900094EA050F00F0A780A4F10104D5F1200E28
:1001A0000DDB02FA0EFC22FA05F2801841F1000183
:1001B00003FA0EF2801843FA05F359410EE0A5F157
:1001C00020050EF1200E012A03FA0EFC28BF4CF088
:1001D000020C43FA05F3C01851EBE37101F000453E
:1001E00007D54FF0000EDCF1000C7EEB00006EEB4B
:1001F0000101B1F5801F1BD3B1F5001F0CD34908D5
:100200005FEA30004FEA3C0C04F101044FEA44522B
:1002100012F5800F80F09A80BCF1004F08BF5FEAB2
:10022000500C50F1000041EB045141EA050130BD92
:100230005FEA4C0C404141EB0101013C28BFB1F5A4
:10024000801FE9D291F0000F04BF01460020B1FAEF
:1002500081F308BF2033A3F10B03B3F120020CDAC2
:100260000C3208DD02F1140CC2F10C0201FA0CF0A0
:1002700021FA02F10CE002F11402D8BFC2F1200C05
:1002800001FA02F120FA0CFCDCBF41EA0C019040BB
:10029000E41AA2BF01EB0451294330BD6FEA040404
:1002A0001F3C1CDA0C340EDC04F11404C4F12002EF
:1002B00020FA04F001FA02F340EA030021FA04F301
:1002C00045EA030130BDC4F10C04C4F1200220FA58
:1002D00002F001FA04F340EA0300294630BD21FA96
:1002E00004F0294630BD94F0000F83F4801306BF5C
:1002F00081F480110134013D4EE77FEA645C18BF50
:100300007FEA655C29D094EA050F08BF90EA020FE6
:1003100005D054EA000C04BF1946104630BD91EADE
:10032000030F1EBF0021002030BD5FEA545C05D1E1
:100330004000494128BF41F0004130BD14F5800420
:100340003CBF01F5801130BD01F0004545F0FE4194
:1003500041F470014FF0000030BD7FEA645C1ABFC9
:10036000194610467FEA655C1CBF0B46024650EA00
:10037000013406BF52EA033591EA030F41F400212C
:1003800030BD00BF90F0000F04BF0021704730B5B2
:100390004FF4806404F132044FF000054FF0000187
:1003A00050E700BF90F0000F04BF0021704730B548
:1003B0004FF4806404F1320410F0004548BF40421D
:1003C0004FF000013EE700BF42004FEAE2014FEA72
:1003D00031014FEA02701FBF12F07F4393F07F4F4D
:1003E00081F06051704732F07F4208BF704793F050
:1003F0007F4F04BF41F40021704730B54FF4607463
:1004000001F0004521F000411CE700BF50EA010265
:1004100008BF704730B54FF000050AE050EA01020E
:1004200008BF704730B511F0004502D5404261EB7E
:1004300041014FF4806404F132045FEA915C3FF4BF
:10044000D8AE4FF003025FEADC0C18BF03325FEA5C
:10045000DC0C18BF033202EBDC02C2F1200300FA0D
:1004600003FC20FA02F001FA03FE40EA0E0021FA32
:1004700002F11444BDE600BF80F0004002E000BF7E
:1004800081F0004142001FBF5FEA410392EA030F7F
:100490007FEA226C7FEA236C6AD04FEA1262D2EBC9
:1004A0001363C1BFD218414048404140B8BF5B42CE
:1004B000192B88BF704710F0004F40F4000020F067
:1004C0007F4018BF404211F0004F41F4000121F07D
:1004D0007F4118BF494292EA030F3FD0A2F10102C7
:1004E00041FA03FC10EB0C00C3F1200301FA03F105
:1004F00000F0004302D5494260EB4000B0F5000F28
:1005000013D3B0F1807F06D340084FEA310102F1E6
:100510000102FE2A51D2B1F1004F40EBC25008BF98
:1005200020F0010040EA03007047490040EB000062
:10053000013A28BFB0F5000FEDD2B0FA80FCACF163
:10054000080CB2EB0C0200FA0CF0AABF00EBC25090
:1005500052421843BCBFD0401843704792F0000F7E
:1005600081F4000106BF80F400000132013BB5E7D1
:100570004FEA41037FEA226C18BF7FEA236C21D047
:1005800092EA030F04D092F0000F08BF08467047AC
:1005900090EA010F1CBF0020704712F07F4F04D17A
:1005A000400028BF40F00040704712F100723CBF8D
:1005B00000F50000704700F0004343F0FE4040F4B7
:1005C000000070477FEA226216BF08467FEA236375
:1005D0000146420206BF5FEA412390EA010F40F460
:1005E000800070474FF0000304E000BF10F00043AC
:1005F00048BF40425FEA000C08BF704743F0964393
:1006000001464FF000001CE050EA010208BF7047AD
:100610004FF000030AE000BF50EA010208BF704734
:1006200011F0004302D5404261EB41015FEA010C49
:1006300002BF84460146002043F0B64308BFA3F141
:100640008053A3F50003BCFA8CF2083AA3EBC25323
:1006500010DB01FA02FC634400FA02FCC2F1200242
:10066000BCF1004F20FA02F243EB020008BF20F079
:100670000100704702F1200201FA02FCC2F12002DF
:1006800050EA4C0021FA02F243EB020008BF20EAD4
:10069000DC7070474FF0FF0C1CEAD0521EBF1CEA02
:1006A000D15392EA0C0F93EA0C0F6FD01A4480EAF0
:1006B000010C400218BF5FEA41211ED04FF00063D9
:1006C00043EA501043EA5111A0FB01310CF0004005
:1006D000B1F5000F3EBF490041EAD3715B0040EA2B
:1006E000010062F17F02FD2A1DD8B3F1004F40EBFB
:1006F000C25008BF20F00100704790F0000F0CF0CE
:10070000004C08BF49024CEA502040EA51207F3A91
:10071000C2BFD2F1FF0340EAC250704740F400006C
:100720004FF00003013A5DDC12F1190FDCBF00F05D
:1007300000407047C2F10002410021FA02F1C2F10B
:10074000200200FA02FC5FEA310040F1000053EAA7
:100750004C0308BF20EADC70704792F0000F00F0F5
:10076000004C02BF400010F4000F013AF9D040EAFB
:100770000C0093F0000F01F0004C02BF490011F48F
:10078000000F013BF9D041EA0C018FE70CEAD1538D
:1007900092EA0C0F18BF93EA0C0F0AD030F0004C0D
:1007A00018BF31F0004CD8D180EA010000F00040C1
:1007B000704790F0000F17BF90F0004F084691F07F
:1007C000000F91F0004F14D092EA0C0F01D14202B9
:1007D0000FD193EA0C0F03D14B0218BF084608D182
:1007E00080EA010000F0004040F0FE4040F40000CC
:1007F000704740F0FE4040F4400070474FF0FF0C5F
:100800001CEAD0521EBF1CEAD15392EA0C0F93EAA5
:100810000C0F69D0A2EB030280EA010C49024FEAF7
:10082000402037D04FF0805343EA111143EA1013B0
:100830000CF000408B4238BF5B0042F17D024FF468
:10084000000C8B4224BF5B1A40EA0C00B3EB510F43
:1008500024BFA3EB510340EA5C00B3EB910F24BF2C
:10086000A3EB910340EA9C00B3EBD10F24BFA3EBB1
:10087000D10340EADC001B0118BF5FEA1C1CE0D179
:10088000FD2A3FF650AF8B4240EBC25008BF20F02C
:10089000010070470CF0004C4CEA50207F32C2BF80
:1008A000D2F1FF0340EAC250704740F400004FF01D
:1008B0000003013A37E792F0000F00F0004C02BF4E
:1008C000400010F4000F013AF9D040EA0C0093F018
:1008D000000F01F0004C02BF490011F4000F013B72
:1008E000F9D041EA0C0195E70CEAD15392EA0C0FDA
:1008F00008D142027FF47DAF93EA0C0F7FF470AF12
:10090000084676E793EA0C0F04D14B023FF44CAF54
:1009100008466EE730F0004C18BF31F0004CCAD1E9
:1009200030F000427FF45CAF31F000437FF43CAF25
:100930005FE700BF42000ED2B2F1FE4F0BD34FF083
:100940009E03B3EB126209D44FEA002343F0004345
:1009500023FA02F070474FF00000704712F1610F68
:1009600001D1420202D14FF0FF3070474FF000003A
:10097000704700BF53B94AB9002908BF00281CBFFF
:100980004FF0FF314FF0FF3000F00CB8ADF1080C24
:100990006DE904CE1DF0E4F8DDF804E0DDE90223A2
:1009A00004B07047704700BF2DE9F00791E8F807E1
:1009B000B2E802105B1854EB0C04B2E802104D418F
:1009C00056EB0C06B2E802104F4158EB0C08B2E8A7
:1009D000021059EB01095AEB0C0A80E8F807804134
:1009E0000130BDE8F00770472DE9F00791E8F807FE
:1009F000B2E802105B1A74EB0C04B2E802108D41ED
:100A000076EB0C06B2E802108F4178EB0C08B2E8E6
:100A1000021079EB01097AEB0C0A80E8F8078041B3
:100A20004042BDE8F00770472DE9F007524290E8D8
:100A30007800B1E880071740DB1918EA020854EB88
:100A4000080419EA020955EB09051AEA020A56EBED
:100A50000A0678C090E87800B1E8800717407B412B
:100A600018EA020854EB080419EA020955EB0905D3
:100A70001AEA020A56EB0A0678C080410130BDE846
:100A8000F00770472DE9F007524290E87800B1E88E
:100A900080071740DB1B18EA020874EB080419EA08
:100AA000020975EB09051AEA020A76EB0A0678C014
:100AB00090E87800B1E880071740BB4118EA0208C7
:100AC00074EB080419EA020975EB09051AEA020A2F
:100AD00076EB0A0678C080414042BDE8F0077047D7
:100AE0002DE9F00152424FF0040890E8300091E8FF
:100AF000C000A31B1340E41AF618EB1B1340ED1AB9
:100B0000FF1830C0C0C1B8F10108EED1BDE8F00156
:100B1000704700BF00B592E8DC072DE9DC07B1E8BB
:100B2000805702B4A7FB02510A95A8FB020BE7FB12
:100B30006310E9FB62B00B91A8FB0351EAFB620171
:100B4000E7FB64B5E7FB6605E8FB6615CDF830B05A
:100B5000A9FB03B6EAFB6316ECFB6356E8FB640BE8
:100B6000E9FB641BEAFB645BECFB646B0D90ACFB84
:100B70000230059CEEFB6250E9FB6460EAFB64B066
:100B8000E7FB6431E8FB6451069CE8FB6461E9FB28
:100B900064B1EAFB64010E93A7FB0432079CE7FBF8
:100BA0006462E8FB64B2E9FB6402EAFB6412049C41
:100BB000E9FB6453EAFB6463089CE7FB64B3E8FB6E
:100BC0006403E9FB6413EAFB64230F955DF8049B5F
:100BD00099E80006DDF80080A9FB0854EAFB68B438
:100BE000DDF81080ECFB6804EEFB6814E9FB682478
:100BF000EAFB6834DDF80480EEFB6865E9FB68B564
:100C0000EAFB6805DDF81480ECFB6815EEFB68254F
:100C1000E9FB6835EAFB68450F96DDF80880AEFB16
:100C20000876E9FB6806EAFB6816DDF81880ECFB3D
:100C30006826EEFB6836E9FB6846EAFB6856DDF895
:100C40000C80ECFB68B7EEFB6807E9FB6817EAFB72
:100C50006827DDF81C80ECFB6837EEFB6847E9FB92
:100C60006857EAFB686708B000BD00BF2DE9F14F87
:100C700087B0FFF74FFFDDF81C8008F1200888E8F7
:100C8000FF00FFBC87E87F08BDE8F08F00B591E862
:100C90009857A3FB03520195A3FB0401E3FB6420D7
:100CA000E3FB67100292A3FB0752E3FB6802E4FB3D
:100CB0006415E3FB6805E3FB69250391A4FB07B614
:100CC000E3FB6926E3FB6A56E4FB670BE4FB682B56
:100CD000E3FB6A5BE3FB6C6B0490A4FB0810E4FB92
:100CE0006950E3FB6C60E3FB6EB0E7FB6721E4FB5C
:100CF0006951E4FB6A61E3FB6EB1E4FB6E010592AE
:100D0000A7FB0832E4FB6A62E4FB6CB2E4FB6E0210
:100D1000E7FB6E12E7FB6853E7FB6963E4FB6CB328
:100D2000E7FB6C03E7FB6E13E8FB6E230695A7FB5E
:100D30000954E7FB6AB4E7FB6C04E8FB6C14E8FBBE
:100D40006E24E9FB6E34E8FB6865E7FB6AB5E8FBF7
:100D50006A05E8FB6C15E9FB6C25E9FB6E35EAFBDF
:100D60006E450796A8FB0976E8FB6A06E9FB6A165A
:100D7000E9FB6C26EAFB6C36EAFB6E46ECFB6E5632
:100D8000E8FB69B7E9FB6907E9FB6A17EAFB6A2731
:100D9000EAFB6C37ECFB6C47ECFB6E57EEFB6E67C7
:100DA00000BD00BF2DE9F14F87B0FFF76FFFDDF801
:100DB0001C8008F1200888E8FF00FFBC87E87F0856
:100DC000BDE8F08F30B44FF0000310F8014B11F87C
:100DD000015B013A84EA050443EA0403F5D1A3F177
:100DE00001034FEAD37030BC704700BF4FF00003DF
:100DF00010F8012B013943EA0203F9D1A3F10103F1
:100E00004FEAD370704700BF30B411F8014B12F8AD
:100E1000015B6C4000F8014B013BF6D130BC7047E0
:100E20002DE9F00791E8F807B2E802105B1854EBDF
:100E30000C04B2E802104D4156EB0C06B2E8021069
:100E40004F4158EB0C08B2E8021059EB01095AEB7C
:100E50000C0A8941B3F1FF3374F1FF3475F1FF35AA
:100E600076F1000677F1000778F1000879F10109C1
:100E70007AF1FF3A51F100015B184C414D4156F1B6
:100E8000000657F1000758F1000859EBD1795AEBE9
:100E9000010A80E8F807BDE8F00770472DE9F00780
:100EA00091E8F807B2E802105B1A74EB0C04B2E8A0
:100EB00002108D4176EB0C06B2E802108F4178EB00
:100EC0000C08B2E8021079EB01097AEB0C0A8941AF
:100ED0005B184C414D4156F1000657F1000758F19F
:100EE000000859EBD1795AEB010A80E8F807BDE810
:100EF000F007704718EB040859EB05095AEB060A8E
:100F00005BEB070B5FF0000C4CF1000C18EB0508D5
:100F100059EB06095AEB070A5BEB070B50EB0C0089
:100F20005FF0000C51EB0C0152EB0C0263414CF1F1
:100F3000000CB8EB070879F100097AF1000A7BEBA5
:100F4000040BA841B141A241B3416CF1000CBBEBD1
:100F5000050BB041B941AA41BB416CF1000C4CF00A
:100F600001068CF0020718EB060859EB6C095AEBE6
:100F70006C0A7BEB6C0B70EB6C0471EB6C0572EB29
:100F8000670653EB6C076CEB6C0C18EB0C0059EB21
:100F90000C015AEB0C025BF1000354F1000455F113
:100FA000000556EBDC7657EB0C0770472DE9F14F47
:100FB00087B0FFF7AFFDDDF81080DDF81490DDF8A5
:100FC00018A0FFF797FFBDE8000FFFF793FF03B0EE
:100FD0005DF8048B88E8FF00BDE8F08F2DE9F14F44
:100FE00087B0FFF753FEDDF81080DDF81490DDF8D0
:100FF00018A0FFF77FFFBDE8000FFFF77BFF03B0EE
:101000005DF8048B88E8FF00BDE8F08F2DE9F0471C
:10101000A74D86B0EA7B0023CDE902338DF80E2080
:101020006A7D8DF81020AA7D2B788DF81120EA7D3D
:101030008DF809308DF812206B782A7E8DF80A30F1
:101040008DF81320AB786A7E8DF80B308DF8142064
:10105000EB7895F826208DF80C30C41D2B798DF88F
:101060000D3007460E4624F007040AB18DF80F3004
:10107000002E08BF204602A918BF002000F0E8FD9E
:1010800095F800806B784FF0000A984404445FFAAA
:1010900088F8D1465FFA8AF34345C0F0F7800334FD
:1010A000002E24F0030449460CBF2046002000F027
:1010B000D3FFA978044479B1EB78EA7BE01C20F0F7
:1010C0000304002E1A4408BF20466B89D2B218BF11
:1010D000002001F035F8044495F827308BB1697A87
:1010E00079B195F82830E01C002B20F0030414BFE0
:1010F000FF222522002E0CBF2046002001F010F90F
:101100000444297B81B1AB7823B995F827305BB1D2
:101110006B7A4BB1E01D20F00704002E0CBF204677
:10112000002011F019FC0444624B1B6863B129795B
:1011300051B1E01C20F00304002E08BF20466A7B5A
:1011400018BF0020984704445B4B1B6853B1A97B30
:1011500041B1E01C20F00304002E0CBF204600200B
:1011600098470444554BD3F80080B8F1000F0FD0D6
:10117000E97B69B1E01CAB7C009320F00304002EF6
:1011800008BF20466B7C2A7C18BF0020C04704445F
:1011900095F826306BB1297959B1E01C20F0030491
:1011A000002E08BF20462A7D18BF002001F086F9D6
:1011B0000444E87F68B16B7EA97D033424F0070402
:1011C00044F00404194422463346C9B201F0AEFA91
:1011D000044495F82010002962D0E01D20F0070893
:1011E000002E4FF0FB020CBF404600201DF0B0FD6A
:1011F00008EB00041EB9FB21404618F015FCA97E3F
:1012000000294FD0AB7F002B4CD0E01D20F0070809
:10121000002E4FF48C720CBF404600201DF098FD4C
:1012200008EB00042B7EA97DA87F033424F007047B
:1012300044F00404194422463346C9B201F068FA66
:1012400004442EB9A97E4FF48A72404618F00EFC71
:10125000EB6A13B106B9EC62283495F8241089B111
:10126000E01D20F00705002E42F210720CBF284648
:1012700000201DF06DFD2C1826B942F21071284691
:1012800018F0FAFBE01B06B0BDE8F0872B7AEA798C
:10129000A97968791DF02EFD0AF1010A8144F9E669
:1012A0008846A7E7002ED3D1324631463046CDE7F7
:1012B000600D0020540000205C0000205800002039
:1012C0008FB572B6194B1D6BE5B9BFF34F8F184937
:1012D000184BCA6802F4E0621343CB60BFF34F8F30
:1012E00000BFFDE7B4FBF6F4DAB20133002CF9D10C
:1012F00002F110036B440A2603F80C4C32B901A822
:10130000A847E2E7044600230A26EDE7531E04AC93
:1013100054FA83F4DAB2C3B2B3FBF6F706FB173321
:10132000303304F80C3CB0FBF6F0E7E7600D00202A
:1013300000ED00E00400FA051FB5164C237A8DF885
:101340000930E3798DF80830A379ADF80C3002A8A4
:101350006379ADF80A300FF0F9FB18B1B52103201D
:10136000FFF7AEFF012301A88DF804301FF00DFA3E
:1013700008B1B921F3E7A07C0FF028FC08B1BC212B
:10138000EDE7607C0FF01CFC08B1BD21E7E704B07D
:1013900010BD00BF600D002038B50546002842D0C2
:1013A0001BF0D4FF10B94FF0FF3038BD18F0EEFD40
:1013B000B0F5FA7FF7D81E4C1E482563002500F0D3
:1013C000FFFA26222946204684F8345084F8355006
:1013D00084F8275084F82850E56284F826501CF0E1
:1013E0008FFA1B22627140F21B32E28040F202321D
:1013F00040F2011322811F222380628101234FF4D6
:101400000272A370A281237544F60112FB2322828B
:10141000A3836384EFF3108472B601F0A7F92CB9AB
:1014200062B62046C1E76FF01500BEE72846BCE76C
:10143000600D00203913000010B5002840F0A68090
:10144000554C94F83430002B40F09D80A1B1002A17
:101450006DD00139142900F29980DFE801F00B19F1
:101460001C2C545C75325F6270383E4B507A7D8B19
:101470008E9182001378237001210020FFF7C6FDB2
:10148000B0F5803F80F28580012384F8353010BDAF
:1014900013786370F0E79378002B48D0D378002B53
:1014A00045D013781A2B42D953781A2B3FD9136899
:1014B000C4F80530E0E71378E278934237D3A3709D
:1014C000DAE71378A278934231D8E370D4E713783F
:1014D000A27893422BD8E373CEE713783BB35378CB
:1014E000013BDBB2F82B22D8138823822B4B927856
:1014F0009A70C1E71078E07414F0ECFFBCE7137841
:10150000ABB12375B8E7137894F827200AB1012B03
:101510000DD96372B0E713886381ADE71378237147
:10152000AAE794F82610137821B9012B04D86FF09C
:101530001500ACE7002BFAD0137863739CE713789F
:10154000082BF4D8A37397E71388FF2BEFD82373E6
:1015500092E7137863758FE713780E2BE7D8A3759E
:101560008AE713680E49C4F81A3053684B60138930
:101570000B8181E71378E3757EE7137863767BE769
:101580001378237678E74FF0FF3080E76FF02C0078
:101590007DE76FF00B007AE7600D0020700D0020F2
:1015A0007A0D002070B50D460646F0B1E9B111F094
:1015B00007041AD100F038F9D0B130461BF072FFA1
:1015C0000D4E214686F836002846FFF71FFD21F014
:1015D000E7FF96F83600F16A0FF01EFCFFF7ACFE4D
:1015E000012386F83430204670BD6FF01500FBE70C
:1015F0004FF0FF30F8E700BF600D002010B5084C39
:1016000094F834302BB10FF023FC94F836001BF023
:1016100065FF1DF030FD002084F8340010BD00BFD0
:10162000600D002050B1074B03F1140253F8041B66
:1016300040F8041B9342F9D1002070476FF0150069
:10164000704700BFADFE0300074B93F8352010B57F
:1016500032B993F834401CB90FF058FB204610BD46
:101660004FF0FF30FBE700BF600D0020074B93F801
:10167000352010B532B993F834401CB90FF05AFB3D
:10168000204610BD4FF0FF30FBE700BF600D00208B
:1016900038B5094D95F835305BB995F8344044B903
:1016A0000FF06AFB012385F8273085F828302046A3
:1016B00038BD4FF0FF30FBE7600D0020074B93F87B
:1016C000352010B532B993F834401CB90FF092FAB6
:1016D000204610BD4FF0FF30FBE700BF600D00203B
:1016E000074B93F8352010B532B993F834401CB944
:1016F0000FF072FA204610BD4FF0FF30FBE700BF3D
:10170000600D0020074B93F8352010B532B993F8DF
:1017100034401CB91FF082F8204610BD4FF0FF3056
:10172000FBE700BF600D0020074B93F8352010B594
:1017300032B993F834401CB91FF073F8204610BD3D
:101740004FF0FF30FBE700BF600D0020074B93F820
:10175000352010B532B993F834401CB91FF063F846
:10176000204610BD4FF0FF30FBE700BF600D0020AA
:10177000074B93F8352010B532B993F834401CB9B3
:101780000FF016FB204610BD4FF0FF30FBE700BF07
:10179000600D0020084B93F8352010B54AB993F836
:1017A000344034B9054B064A1A600FF01BFB204643
:1017B00010BD4FF0FF30FBE7600D00205800002007
:1017C0001D240000074B93F8352010B532B993F86B
:1017D00034401CB90FF01CFA204610BD4FF0FF300A
:1017E000FBE700BF600D0020074B93F8352010B5D4
:1017F00032B993F834401CB90FF01CFA204610BDE2
:101800004FF0FF30FBE700BF600D002007C8024B20
:1018100083E8070000207047980D0020014B9B686B
:10182000184700BF980D0020024B9868003818BF79
:1018300001207047980D002073B52E4D031D0446FE
:101840002B60284610F0EAFA0228064606D12949FC
:1018500020461CF002FB304602B070BD042842D185
:101860002B78092B0AD0252B1ED0294620461CF0A8
:1018700059FBB0F5817F2DD3722112E005213E2066
:101880001CF0BEFA0028F0D1EB782A7901A943EACE
:1018900002236846ADF800301CF066FF0028D0D067
:1018A00053210820FFF70CFD1A213E201CF0A8FA56
:1018B0000028DAD16B68C3F30F23ADF80430694612
:1018C000112301A88DF806301CF088FF0028B8D03D
:1018D0006521E6E70028B4D0A17820781CF090FAC2
:1018E0000028B8D1ADE70828B5D1024920461CF040
:1018F000E3FAB0E7A40D0020074B4FF0FF3141F6AB
:10190000FF72C3E9001205490022C1E900221F212C
:10191000C3E90212704700BF00000020A80E00209B
:101920003F280CD801380B4BC0F3421200F01F00C7
:1019300053F8223023FA00F000F001007047FF282E
:1019400006D04038C0F34212034B00F01F00EFE70F
:101950000120704700000020A80E00200146074B20
:10196000006849681A4603C240F48C221A6041F0AC
:10197000107242F4FF625A60704700BF00000020FE
:101980000246024B0068516803C37047A80E00204E
:101990000246024B0068516803C3704708000020EC
:1019A0000138064BC0F3421203EB820300F01F0024
:1019B0009B6823FA00F000F001007047000000204F
:1019C000014B1860704700BFB00E002010B5FFF744
:1019D00093FF1DF0B8FF034B1B68044603B1984703
:1019E000204610BDB00E00200B880288F0B5C3F36E
:1019F0000E049EB204F11803C57CC35A05352A446F
:101A00002B4497B213FA82F3013B4288B3FBF7F3FE
:101A100013FB07439BB29A42044A93BF22EA060390
:101A2000324013439BB20B80F0BD00BF0080FFFF2C
:101A300010B5114B00EB41041A786389B3FBF2F344
:101A400003FB0223013A1A44B2F5706F027928BFF2
:101A500000231A448378B2FBF3F0194403FB1020EF
:101A6000091AB1FBF3F003FB101313446FEA43436D
:101A70006FEA5343638110BDB40E002010B5124BC2
:101A8000E0B15A78022A04D040F259111720FFF72A
:101A900017FC03225A70026812F0070102D04FF4BB
:101AA000AF71F3E75C685A60224402609A60BDE857
:101AB0001040302203F10C001BF022BF01225A70AB
:101AC000C3E9010010BD00BFB40E00202DE9F041B4
:101AD000254E96F801E00EF0FD0CBCF1010F04D08C
:101AE00040F273111720FFF7EBFB91F80680B8F175
:101AF000080F02D940F27511F4E7CF7997B3454644
:101B0000022D726838BF02257B1D5C0002EB430387
:101B10006A1E13446D422B408D884544013DC8F137
:101B200000022A404FF6FE75AA4202D94FF4C07156
:101B3000D8E7BEF1030F12D106EB80001C1BC5686D
:101B400015B140F28511CDE7C460A770228084F8FA
:101B500003C0087A09682071080CE080218107FB26
:101B600002337360BDE8F081B40E00202DE9F04728
:101B7000364C6378012B65D0032B04D040F29511CD
:101B80001720FFF79DFBD4E901329A4202D04FF4AF
:101B9000CC71F5E72546002305F80C3B1E460B22C9
:101BA000994655F82200013A58B190F8048081789E
:101BB000B8F1FF0F2FD180F804908E423CBFCEB217
:101BC0000123511CEDD103B126700B2640F6FF69AD
:101BD00055F826709FBB013EFAD2042363700020A3
:101BE000BDE8F08755F82CE0BEF1000F06D09EF856
:101BF00004A0C24504BF9EF802E077440CF1FF3C0C
:101C0000BCF1000FEEDA3944FF2907D903B1267081
:101C10004FF49A71B4E794460027F1E70771CCE7D7
:101C200007EB41033846A3F80A90FFF701FF08F1DC
:101C30000108BB785FFA88F18B42F1D8CBE74FF00F
:101C40000008F6E7022360686370C9E7B40E00205D
:101C50002DE9FF474A788B781344FF2B06460C4644
:101C600004D940F2AB111720FFF72AFB0B789342FF
:101C700002D940F2AF11F6E7DFF8D481009038B115
:101C800098F80130022B02D00020FFF7E1FF6846F0
:101C9000FFF7F4FE00276F4A6378019208254FF49E
:101CA0005A7201A93846ADF808208DF80B308DF82E
:101CB0000A508DF80C70FFF709FF674AA37801926C
:101CC00001A94FF47A720120ADF808208DF80B308D
:101CD0008DF80A508DF80C70FFF7F8FE5F4AE37834
:101CE00001924FF0FF094FF4AC7201A90220ADF848
:101CF00008208DF80B308DF80A508DF80C90FFF706
:101D0000E5FE574A2379019201A990220320ADF8FC
:101D100008208DF80B308DF80A508DF80C90FFF7E5
:101D2000D5FE63794F4A01928DF80B30A82201232A
:101D300001A90420ADF808208DF80C308DF80A5068
:101D4000FFF7C4FEA379484A0192CDE902778DF8E6
:101D50000A508DF80B308DF80C901BB114F076FB07
:101D6000ADF8080001A90520FFF7B0FE3F4AE3796E
:101D70000192082580224FF0FF0901A90620ADF845
:101D800008208DF80B308DF80C908DF80A50FFF775
:101D90009DFE237A364A01928DF80B307822022379
:101DA00001A90720ADF808208DF80C308DF80A50F5
:101DB000FFF78CFE2F4A637A019200274FF40A72D4
:101DC00001A92846ADF808208DF80B308DF80A508F
:101DD0008DF80C70FFF77AFE274AA37A019201A9C9
:101DE0004FF48C720920ADF80820DFF890A08DF830
:101DF0000B308DF80C908DF80A504FF48879FFF76E
:101E000065FEE37A8DF80B3001A90A20CDF804A015
:101E1000ADF808908DF80A508DF80C70FFF756FE5B
:101E2000237B8DF80B3001A90B20CDF804A0ADF871
:101E300008908DF80A508DF80C70FFF747FEFFF7F9
:101E400095FED8F80400801B04B0BDE8F08700BF01
:101E5000B40E00208B2B0200A7280200995D000021
:101E6000A12C02008D780100D13002005D35020006
:101E700091E80000F9E70000E5E800008DE90000C6
:101E8000034B03EB8003D86800B18078704700BF34
:101E9000B40E0020F8B54FF6FF730380184B03EB28
:101EA00081030546D868B8B186780379B3FBF6F2AA
:101EB00006FB1233DBB219460A1D00EB4202B2F9EF
:101EC00002705488002F09DB0131B1FBF6F206FBEA
:101ED0001211C9B28B42EFD10020F8BDFF29FBD00F
:101EE000C4F30E03C4782B8024B940F2C721172015
:101EF000FFF7E6F95380BDE8F8401CF0C5BE00BF0F
:101F0000B40E00201E4B03EB810370B5DC68054660
:101F10004CB3B0F5706F04D340F2D5211720FFF712
:101F2000CFF9014620461CF091FEFF28014604D05F
:101F30002046BDE870401CF0A7BEA078B5FBF0F3CA
:101F400000FB1353DBB219460A1D04EB4206B6F937
:101F50000260002E09DB0131B1FBF0F200FB12112F
:101F6000C9B28B42F0D1002070BDFF29FBD08B425B
:101F700004EB42021CBF0023E3705580D8E700BF8A
:101F8000B40E0020094B03EB810310B5DC68014659
:101F900020461CF05BFEFF28014604D02046BDE829
:101FA00010401CF071BE002010BD00BFB40E002018
:101FB0000F4B03EB810370B5DC68014606462046F3
:101FC0001CF044FEFF28054610D0014620461CF0B8
:101FD0005BFEE2882389014643EA02433046984784
:101FE00020462946FFF724FD002070BD0320FCE7B2
:101FF000B40E002038B50E4B827903EB8203044601
:10200000D86808B9022038BD8278E1799142F9D2C6
:102010004B1CE37100EB41035D89B3F90A30002BDF
:10202000F3DBA5801CF030FE20600020EBE700BF52
:10203000B40E002008B5074B03EB81030146D868B6
:102040001CF004FEFF2804D14FF44E711720FFF757
:1020500037F908BDB40E002070B5044610F0030037
:102060000E4603D049211820FFF72AF91CF092FDF3
:10207000054624B10348314604601CF08BFD284618
:1020800070BD00BFF00E00202DE9F04F1E4C85B052
:1020900092462268BDF83CB098468146BDF838307B
:1020A0000D461AB95B211820FFF70AF91A460A21D2
:1020B000504603931CF001FC5A460646092140464F
:1020C0001CF0FBFB3118074620681CF08EFD039BBB
:1020D000C9F8000018B9286005B0BDE8F08F841970
:1020E0002C60D9F800000093524631460A231CF0B8
:1020F00083FB2868CDF838B009234246394605B03D
:10210000BDE8F04F1CF078BBF00E002070B50E4615
:1021100004461CF0DBFB054630461CF0D7FB044BA5
:102120002A1821461868BDE870401CF088BD00BF21
:10213000F00E0020014B18681CF04ABDF00E002084
:10214000F8B511441D4EC9B210F00305317003D02B
:102150004E210920FFF7B4F81F2B19D89B009BB222
:10216000033323F003039BB208B17060338101EBAA
:1021700081047668E2004FF0010C00EBC404EFB27A
:10218000B94212D8D01D03FB010020F00700F8BDB2
:10219000FF2B4FEA430204D9FF339342DFDB93B2B4
:1021A000DEE77C2AFBDC7C23DAE710B186F800C08E
:1021B0007460013528361C44E1E700BFF40E0020AE
:1021C00038B5144A147853680021C8B2844203D841
:1021D000A9210920FFF774F8184601310578283342
:1021E000002DF2D0012412894470002144688170CE
:1021F0008161C161920800F12001051D21F8022BC7
:10220000994245F8044B1444F8D10023436103700C
:1022100038BD00BFF40E00200A4B1B89B3F5FF7FC9
:102220004FEA930006D25A089B1A9BB2984238BFD5
:1022300018467047B3F5EE6F01D8FF22F4E740F27D
:102240007263F3E7F40E00202DE9F8434B788046E3
:102250000C4602F0040602F0FB07D3B1DFB12F4BAE
:10226000D4F804901D89BFBB01236370AD08A7613A
:10227000E76104F120034A46211D04F1280023F8F8
:10228000025B984241F8042B2A44F8D10023636191
:1022900001E0002FE3D0002E4FF0FF0318BF02260D
:1022A000A370A3191B7D032B03D1022F1CBF013682
:1022B000F6B2A31901221A7506F10C0204EB860688
:1022C000002324F812307268A370C8F80020A8F820
:1022D00004304046BDE8F883002114226170A01844
:1022E0001BF00EFBB5F5FF7F0FD26B08ED1AADB2F8
:1022F00009EB0502C4F804902584A2606384C4F845
:102300000C90A5842261E384C5E7B5F5EE6F4FF02C
:10231000FF03EBD940F27265EAE700BFF40E00203C
:102320002DE9F7431FFA82F81FFA81F904460F4698
:1023300016462E214A4640461CF0BFFA05465CB1BF
:102340002E230146CDF80090424620461CF054FA58
:10235000034B1C601F715E71284603B0BDE8F0831B
:10236000000F0020024B5A7919791868FFF7D8BF7F
:10237000000F0020014B1868704700BF000F0020BD
:10238000014B5879704700BF000F002030B5074B54
:102390005A7B1C7B043200238025D9B28C4200D8A2
:1023A00030BD057001331044F7E700BF100F002067
:1023B00010B50521FFF73EFE044AD38911799468D0
:1023C0004343106804FB0133184410BD100F002074
:1023D00010B5084C39B90521FFF72CFEA268236817
:1023E00000FB023010BD0621FFF724FEA28A2369FC
:1023F000F6E700BF100F002010B50C460521FFF7CF
:1024000019FE054B5A7B99680432484304FB0202CB
:102410001868104410BD00BF100F00202DE9F04FC8
:10242000254C85B063730433534303339DF83870F0
:10243000227323F0030305460E46A3606FB13A46AC
:102440001621FF201CF039FA8046ADB115F00309C2
:1024500005D06D211920FEF733FFB846F5E725605A
:102460002671A4F80E801FFA86FA1FFA87FB1FFA5E
:1024700089F29245A36805D8A0684044704305B02E
:10248000BDE8F08F2568039303FB0950FFF77EFF3B
:10249000039B6FB1E0892279CDF800B009FB00F011
:1024A00003FB020041461623FF2228441CF0A4F936
:1024B00009F10109DBE700BF100F00202DE9F74308
:1024C00005460C46F720052190461CF0F6F9064615
:1024D00085B115F0030703D08F211920FEF7F0FE18
:1024E000DFF83890C9F81050A9F81400A5B2BBB2B3
:1024F0009D4204D806FB04F003B0BDE8F083B9F8B0
:1025000014C0D9F81000CDF8008007FB0C0005239B
:10251000F72231461CF070F90137E8E7100F002070
:1025200038B50D460446FFF753FFFFF72FFF4DB9AF
:10253000054BDB8933B12046FFF73AFFBDE8384051
:102540001CF082B938BD00BF100F002073B51546CE
:10255000104A01930E46117BDBB2B3FBF1F201FB93
:102560001231C9B2FFF748FF0378802B04460ED121
:102570002A46314604301BF04BF9BDF804209DF883
:102580000630E5702280A370012002B070BD0020EB
:10259000FBE700BF100F002007B50E4B1B7BB1FB04
:1025A000F3F202FB1311C9B2FFF726FF0288ADF860
:1025B00004209DF804200346002062F307009DF8E4
:1025C00005209B7862F30F2063F3174003B05DF89A
:1025D00004FB00BF100F0020F0B58029A1B00FD878
:1025E0001B4B6E461F7B00253446EBB299420BD83D
:1025F00000234E1EB3421D4615DB002021B0F0BD66
:10260000EC211920FEF75CFE0344DBB2B3FBF2FCC5
:1026100002FB1C33DBB2B3FBF7FC07FB1C3306F8F1
:10262000013B0135E1E7581CC3B2803554FA80F014
:102630001A466D448A42DDD210F8017B15F880CC31
:10264000BC4502D00132D2B2F4E70120D6E700BF88
:10265000100F0020F7B515461C46ABB9234B1B7B6A
:10266000B1FBF3F203FB1211C9B2FFF7C5FE037809
:10267000802B1DBF80230370C3782C801CBF2B8050
:10268000041D204603B0F0BD1946FFF7A1FE064623
:102690001CF0A2F9074630BBF9230DF102010DF140
:1026A00001023046ADF802301CF032F901A90446AF
:1026B000304601971CF04FF920B94FF49A71192058
:1026C000FEF7FEFD394630461CF06AF910B940F2BB
:1026D0003511F4E7019B13B94FF49C71EFE7BDF896
:1026E00002302B80CDE70024CBE700BF100F002085
:1026F00008B5064BDB8933B1FFF75AFEBDE8084049
:10270000FF211CF0A9B9184608BD00BF100F00201A
:1027100007B5CDE900230B4603490246081D1CF00E
:1027200084FC03B05DF804FB280F002013B5064CB1
:10273000CDE900230B46024604F1080104F10C0028
:102740001CF073FC02B010BD280F0020024B0146A4
:10275000D3E900201CF073BA280F0020024B014679
:10276000D3E902201CF06BBA280F0020134B012282
:1027700000214FF0FF309A60C3F80012C3F808033D
:10278000C3F80015C3F804259A60C3F80803C3F81A
:102790000015C3F804250A490A4A03F580334FF4AB
:1027A0000040C3F80825C1F88000BFF34F8FBFF386
:1027B0006F8FC1F88001C3F80825704700F0004012
:1027C00000E100E00000F63F8C46382300B50CF82D
:1027D000033B054B8E4607CBCEF80300CCF8041024
:1027E000CCF808205DF804FB440F002070B5234DA1
:1027F000E96AAC6A0B7803F00303032B04F1A80425
:102800001AD16B8E2A8E0120034342F400626B863C
:1028100020746B6B2A869847E96A237E013B18BFB8
:10282000012323764B7833B1D4E92232013342F1CC
:102830000002C4E9223270BD002BEED04B78002B91
:10284000EBD02A8E42F400622A86AA6B002AF2D0CC
:10285000FB2B08D895F83C3063B16B6B0021BDE8C9
:1028600070402020184795F83D3043F0100385F85C
:102870003D3070BD01230370CFE700BF380F00204B
:1028800010B5114C15F0F4FE15F0BEF9636B208EF7
:1028900000219847237E4BB9236C94F83D1094F89F
:1028A0003E009847002384F8443010BD94E80700A8
:1028B00004F10C0383E807000449022204F1190023
:1028C0001FF08DF9E8E700BF380F0020C92700008E
:1028D000034B93F8443003B97047FFF7D1BF00BFF3
:1028E000380F0020012923D838B51C4DAB6C0446A5
:1028F0009847D8B195F83D30C3B995F8240010B188
:102900001CB1002038BD012CFCD195F84C30DC0600
:10291000C3F300110ED50023AA6B92B1C0B16A8E29
:10292000920715D5AB6DDB78022BEAD0012038BDBC
:10293000012070472B6D1B78C3F30013C3F1010313
:10294000EAE7B5F85420002AE8D00029EED0E5E700
:10295000002BEBD16A8E002AD3D0E7E7380F002096
:1029600008B5094B93F84420022A07D1DA7A42F0DD
:102970000102DA72BDE80840FFF782BF40F23D2154
:102980002720FEF79DFC00BF380F0020F8B5254C2E
:10299000A66A236DE36296F8CB30054606F1A807D8
:1029A00094F85C000BB10430C0B296F871100DB908
:1029B000FF282ED015F0B8FB97F823301BB3206EFC
:1029C00016F082FA94F82430216EE06A003B18BFBA
:1029D000012384F88030D7E92223C4E91E2315F0AF
:1029E000BFF83DB996F8710010F00C0018BF282010
:1029F00016F0D4FA96F87010002016F037FB022378
:102A000084F84430F8BDE06A16F05EFA15F0FCF880
:102A1000E7E796F870209142D0D015F085FB97F843
:102A20002330CBE7380F002070B57F4CA56A82B009
:102A300095F8CB20002305F1A8068DF8053094F811
:102A40005C300AB10433DBB210B9FF2B00F0B28066
:102A500095F87010FF2015F067FBB37D032B00F293
:102A6000DE80DFE803F0021D807094F8C230ADF81C
:102A700006306E48A5F860300EF0E2FB002840F00A
:102A8000A180D4F8C4000DF105020DF106011BF080
:102A90003FFFA06520B196F86130002B00F0A980BF
:102AA0006348A065F37DDB0003F00802037803F0C0
:102AB000F3031343327E920002F00402134303F047
:102AC000EF0203F00303032B027002D1C378022B41
:102AD00012D0D4F8C4001BF09EFF48B9A06D027854
:102AE00002F00303032B07D00EF0D0FB002879D1AE
:102AF000A06D027842F01002027096F8223013B1F5
:102B00004378002B43D116F0DFF915F07DF8A66D60
:102B10000FF02CFB20B1337803F00303032B64D0B8
:102B200095F87110012016F0A1FAA36D414A18889A
:102B30009978A4F84C00012384F8C830917084F887
:102B4000443002B070BD39480EF07AFB002861D0E5
:102B5000A06DC3781B2BA5D1012105F1100015F044
:102B600019FBA06D9EE7B5F86030D4F8C400ADF84D
:102B700006300DF105020DF106011BF0C9FEA0653E
:102B800000288FD140F2D6212720FEF799FB206E36
:102B900016F09AF994F82410206ED6E92023B1FAA1
:102BA00081F67609A16D84F88060C4E91E2314F0D3
:102BB000D7FFACE795F8713095F870108B427FF431
:102BC00049AF4AE7638EA16D626B43F080038020BA
:102BD00063869047A06D01217174C3781B2B7FF42D
:102BE00061AFBAE7A06D027886E7012017F06EF9B1
:102BF00096E79DF805302BB1BDF806101EF0AAFF30
:102C0000A06D4FE703808370A06D01211EF08CFE44
:102C1000A06DF1E740F2DF212720FEF751FB4FF4D2
:102C20003B712720FEF74CFB380F0020900F00204F
:102C3000C80F0020840F00202DE9F041434C94F888
:102C40004420A56A012A82B006460F4605F1A80570
:102C50005FFA82F874D12B7C6BB1638E002143F054
:102C6000040363862974636B0420984794F8243026
:102C70000BB185F81280A16D0A7802F00302032AD5
:102C800036D04B78EBB10223AB7595F82330F3B116
:102C9000A36A93F87110D5E92223C4E91E2394F89E
:102CA000243094F85C20003B18BF0123013984F8DC
:102CB000803007293FD8DFE801F03B133E113E3E4C
:102CC0003E380123AB7595F82330002BE0D106B9CF
:102CD00007BB02B0BDE8F041FFF7D2BD4FF00308DB
:102CE000002300931A494346012014F0C1FEEEE789
:102CF000AB7D63B9638E43F0020363860220636B8E
:102D00009847A16D0B7803F00303032BB9D103237C
:102D1000AB75BAE731463046FFF7E4FD0028D8D15D
:102D200002B0BDE8F041FFF731BE4FF00208D7E72F
:102D30004FF00008D4E740F2B9310620FEF7C0FAA0
:102D400040F25C412720FEF7BBFA00BF380F00209D
:102D5000A00F002070B50C4B0C4C0D4A1A6094F873
:102D6000443063B906460D4603F0FF02012104F129
:102D7000900022761EF0D8FD2665256670BDDF2105
:102D80002720FEF79DFA00BF60000020380F0020CA
:102D900048360000044A92F8443003F0FF000BB9B3
:102DA000107670470C207047380F0020024B01222C
:102DB00083F83C20704700BF380F00202DE9F04316
:102DC000BA4C85B002AD85E8030094F844100C9825
:102DD000002940F0D481002A00F0D181002B00F0BE
:102DE000CE81002800F0CB8101F0FF06206495E839
:102DF0000300A36404F1240383E80300A56A62636B
:102E000084F83C6084F83D6084F8C96084F83E60D2
:102E100084F8C8606686268615F01CFA14F0F4FE65
:102E200095F9740015F036FB05F1A807A86A16F0AD
:102E30002FF8286A15F034FB97F8330015F03AFBA9
:102E400094F82430002B69D004201AF00FFEEA69B0
:102E500041F64B539A4294BF4D20962015F01AF933
:102E6000A36A93F8D832002B40F01C8195F87110BA
:102E7000012015F00FFD002863D08D4B186816F067
:102E80000DF86B69C4F8C430AB69C4F8CC3095F860
:102E90007F301BB9A96F002940F0C380D7F890009C
:102EA000D7F89410D7F89820D7F89C30DFF804C2F0
:102EB000ACE80F00D7F8A030C4F88130D7F8A430C0
:102EC000CCF80D30A36A94F8241093F8C520A2F131
:102ED0002600002938D1012803D993F8C6002628F6
:102EE00038D193F81A2393F87080002A40D0B8F1B3
:102EF000080F3DD0B8F1040F00F02681082A00F039
:102F00002381042A00F02081B8F1010F30D0012A7A
:102F100014BF4FF002084FF0010829E003201AF017
:102F2000A5FDEA6941F64B539A4294BF4D20962085
:102F300015F0B0F895F87010002015F0ABFC0028E3
:102F40009BD105B0BDE8F08301287BD993F8C6007A
:102F5000262877D0213A012A40F2CC80242800F09C
:102F6000E78093F87080B8F1040F08BF4FF00808AD
:102F700005F13809414648461EF0EFFE41461EF075
:102F800099F8B5F8443095F871100246934228BF7D
:102F90001346484684F8C2301EF0A5FE95F871101D
:102FA00097F82390B5F84C80082908BF04211EF03B
:102FB00081F8B9F1000F01D1043080B2404528BF3B
:102FC00040465FFA80F884F8D0800FF0CFF820B147
:102FD000B8F12B0F38BF4FF02B0894F8241084F869
:102FE0005C80002957D197F82230002B3AD001237A
:102FF00084F88030D7E92023C4E91E2395F8703087
:10300000E86941F64B52013B904294BF04200020F6
:10301000072B00F29C80DFE803F01E9F9A1D9A9A0E
:103020009AA1B7F84E20BB8A93427FF437AFB5F828
:103030007C201344A7F84E3095F87E00012216F04C
:1030400029FF2BE793F8B62393F87080002A7FF4CA
:103050004EAF8DE7032100220B4600921549FB225B
:1030600014F006FD0120FFF7DFFC134BD3F85035B9
:1030700023F00803032B00F087800023C4E900330A
:10308000A3602A88B98A97F833306180228023713F
:1030900005B0BDE8F08397F823307BB90120FFF736
:1030A00075FCE2E715F0C4F8E0E600BF380F002039
:1030B00060000020A00F002000100040D7E922018E
:1030C00095F871300122013BC4E91E0184F880208B
:1030D000072B3CD8DFE803F005443B043B3B3B4671
:1030E00003260021009133462A494246012014F06C
:1030F000BFFCD3E724281BD000293FF432AF93F85C
:103100006E2193F8708050071ED412F001032BD16A
:1031100093077FF52DAFB8F1080F3FF429AFB8F151
:10312000040F11D0B8F1010F18BF4FF002081FE7CC
:1031300000293FF416AF93F8691093F86E2193F8C5
:1031400070800A405107E0D54FF0080810E740F2C0
:10315000B9310620FEF7B4F801217CE702217AE7B5
:103160000126BEE70226BCE7B8F1080F3FF400AF26
:10317000B8F1040F14BF98464FF00808F8E64FF472
:10318000A8712720FEF79CF84FF4FD712720FEF769
:1031900097F800BFA00F002010B5184C94F84430E9
:1031A000EBB194F824308BB194F84430022B20D149
:1031B000A36AD3F8F00215F0BFFEA16A91F87F3040
:1031C00003F0FF020BB98B6F63B910BD94F8443064
:1031D000012BF2D040F20F212720FEF771F8FFF704
:1031E0004FFBEAE791F87E00BDE81040114616F06B
:1031F00051BE40F213212720FEF762F8380F00205D
:10320000FFF73EBB014B1876704700BF380F002018
:10321000014B93F8C8007047380F0020024B188EFE
:10322000C0F38020704700BF380F0020014B93F897
:10323000C9007047380F00202DE9F0411E4FBC6ACD
:10324000820782B005460E4604F1A80411D4EB07AC
:103250000CD5D4E92232217E013342F1000201294A
:10326000C4E922320CBF00230123237602B0BDE85B
:10327000F081BB6BDBB1B7F85420F96A1846033212
:1032800091F801801AF0C4FA0DF1020201A9F86266
:10329000D7F8CC001BF074FC01981BF05BFC0122FA
:1032A00030604146D7F8CC001BF000FCCFE740F27D
:1032B0004D412720FEF704F8380F00202DE9F04794
:1032C000B24C86B00023CDE904338DF80F3094F86A
:1032D0004430A56A022B06460F4605F1A8055FFAA1
:1032E00083F840F0A281238E13F0400106D1636B76
:1032F00040209847238E43F040032386002E5AD067
:1033000095F82330002B40F01881D4F82CA09AF8BF
:10331000011089B2A4F85410002940F0258100233F
:10332000A3639AF80000238EE97DC0F3800243F482
:1033300080739142238600F0CC80A26A94F8241016
:1033400002F1A80999F81620EAB1022A00F0538187
:10335000002389F8163021B199F81220002A40F094
:103360003F8199F81130002B40F0168199F8173001
:10337000D4F82CA0012B0CBF0023012389F81730AF
:103380009AF80000238E43F4806222862A7EC0F3DE
:10339000C0039A424FF0000900F0A2800EF0E6FE52
:1033A000C0B19AF8003003F00303032B12D10120BF
:1033B00016F08CFD0EE095F82320002A40F0B9802D
:1033C00043F40073238694F8C930013384F8C9307C
:1033D0004FF0000995F822305BB394F82430A26ACC
:1033E000B3FA83F3D06992F870105B0984F88030E7
:1033F00041F64B53984294BF04200020D5E9202386
:103400000139C4E91E23072900F2E280DFE811F048
:103410008E000800E0008B00E000E000E0000A0001
:103420004FF001080022009259494346FB2214F054
:103430001FFB47B994F8C9100120FFF753FA07465C
:10344000002800F0998015F07FFE01279DF80F30CD
:103450007BBBB9F1000F08D094F82430002B59D170
:10346000B4F809300133A4F809303EB3B4F805309C
:1034700000220133A4F8053084F8C92045480FF034
:10348000A9F9049840B11BF065FBA16A00234372BF
:10349000082201301EF091FB059B33B1A16A002286
:1034A0001A72059810221EF088FB6FB906B0BDE8AD
:1034B000F08705A90220FFF7BFFECAE7B4F807307E
:1034C0000133A4F80730D9E7FFF7DAF906B0BDE811
:1034D000F0872A7EC0F3C0039A42B1467FF45EAF04
:1034E0000EF044FE00284AD0D4F82CA09AF8003000
:1034F00003F00303013B012B41D89AF8012094F813
:10350000D0309A423BD994F83D3043F0100384F810
:103510003D3043E7B4F80530B4F80710AA8A0B43EE
:103520001343A2D09CE74FF003087BE74FF000085D
:1035300078E714F0D3FB238E42E714F095FB14F0E8
:1035400077FBD4F82CA09AF8011000287FF4E1AEA4
:10355000002942D09AF800302A7EC3F3C0039A4271
:103560005DD089B2A4F85410D4F8CC001BF074FAE2
:10357000D4F82CA0A063D4E6FFF756FA66E70DF165
:103580000F00FFF733F9D4F82CA007E7380F00201D
:10359000A00F00205C0F00204FF0000A89F811A056
:1035A0000DF05EFE00284AD0638E43F00803638668
:1035B0005146636B08209847D9F880300133C9F829
:1035C0008030D9F8843043F10003C9F88430CDE667
:1035D00040F2B9310620FDF773FEA4F854109EE6C0
:1035E00089F812301946638E43F010036386102069
:1035F000636B9847B5E6D4F8C40004A91BF0ABF997
:10360000C0B1D9F8803094F824100133C9F8803063
:10361000D9F8843043F10003C9F8843098E60123D7
:1036200084F83E30FFF72CF940E740F2CF412720E5
:10363000FDF746FE40F2CB312720FDF741FE40F278
:10364000E2312720FDF73CFE61290000BD32000079
:10365000392C0000D12800000B46062203F8032B6A
:10366000B0F809C0C27AA1F803C09A70704700BFD1
:1036700006230B70D0F80F301A88A1F8032093F8B6
:10368000CD304B71024B5B6800229A67704700BFD8
:103690004C1800200B46172203F8032BD0F809C062
:1036A000D0F80D20C1F803C05A60704710B5392317
:1036B00001F8033B00F109032930D3F800E0D3F807
:1036C00004C09A68DC68CC6010338342C1F800E023
:1036D000C1F804C08A6001F11001EED11B880B8093
:1036E00010BD00BF124B134A33F8113003F2E73319
:1036F000A2FB0323082900F1FF324FEA93134FEA9C
:10370000C2120FD0042907D0022914BFF021602172
:10371000134401FB0030704740F2BE21134401FB0B
:10372000003070474FF4D261134401FB0030704702
:10373000D8BF0300D34D621030B5D928844628BFC6
:103740004FF0D90C0CF1300CBDF80C401FFA8CFC7A
:10375000BCF1FF0F28BF4FF0FF0C04F0020514F07E
:103760000104864638D1002D64D001F5A570082AE1
:1037700000F01481042A00F0C580022A14BF4FF41F
:1037800014714FF49671014412F00C0F40D1082AC5
:1037900000F00C81042A00F00C81022A14BF4FF4BF
:1037A000B070B4209C31014401F19800B4BB002BEF
:1037B00000F0AC80082A00F03C81042A00F09981D6
:1037C000022A40F6480308BF4FF48563BEF1D90FC3
:1037D000184400F2428130BD01F5A570002DC6D11C
:1037E000002B42D1082A00F01C81042A00F09C81A1
:1037F000022A00F0B7810CF1050C1FFA8CFC28217D
:1038000008250CFB051C12F00C0F0CEB0001BED0C0
:1038100001F6144101F19800002CC8D0082A00F0EC
:10382000C180042A00F0C880022A14BFC023642388
:10383000184430BD01F5A5702BB3082A00F0438170
:10384000042A00F07981022A40F6480308BF4FF4A9
:103850008563BEF1D90F1844BDD9AEF1D903C5496E
:103860009BB2F63381FB0341FEE0082A00F0D680CC
:10387000042A00F03B81022A40F6480114BF8C461E
:103880004FF4856CBFE7082A00F01181042A00F08C
:103890005B81022A00F004810CF1050C1FFA8CFCFC
:1038A000282408230CFB034CBEF1D90F604492D9A5
:1038B000B149AEF1D90E1FFA8EFEA1FB0E31AEEB6F
:1038C000010301EB5301042AC1F3C71146D1C1EB37
:1038D0004113C1EBC303AEEB030341F208329BB2C9
:1038E00002FB0100002B3FF476AF03F1080292B215
:1038F00005324FF4BF74102100F5A57302FB01429D
:10390000D01830BD40F2CE5101443DE77346F12B53
:1039100028BFF123082A53D0042A00F0FE80022A8F
:1039200000F01A8113339BB228214FF0080C03FBDF
:103930000C13BEF1D90F18447FF64DAF8E49AEF18E
:10394000D90E1FFA8EFEA1FB0E31AEEB010301EB87
:103950005301042AC1F3C71100F09280C1EB411357
:10396000C1EBC303022AAEEB030E40F6921540F200
:1039700072541FFA8EF318BF2C4604FB01000CBFD3
:1039800018242824002B3FF426AF0833022A9BB2C8
:1039900003F105020CBF04210821ADE741F2D0215B
:1039A0000144F1E64FF4CA63184442E74FF435602E
:1039B000F8E640F2EE30F5E640F2AE23184438E780
:1039C00013339BB200EB8310BEF1D90F00F5C87022
:1039D0007FF601AF684AAEF1D90E1FFA8EFEA2FB48
:1039E0000E32AEEB020302EB5302C2F3C712C2EB7C
:1039F0004213C2EBC303AEEB030E44F2DA311FFAFB
:103A00008EF301FB0200002B3FF4E5AE03F1080248
:103A100092B205324FF4C87440216DE744F2902C05
:103A2000F1E60CF1050C1FFA8CFC4FF4C87140252F
:103A3000E7E601F58640BEF1D90F00F128007FF6D8
:103A4000CAAEAEF1D9024B4B92B2F63283FB0213EF
:103A50001344DB1144F2DA310FE0AEF1D901454BEA
:103A600089B2F63183FB01430B4440F6921440F2D5
:103A70007251DB11022A18BF214601FB030030BD41
:103A8000C1EB4113C1EBC303AEEB030E41F20832AD
:103A90001FFA8EF302FB0100002B7FF426AF30BD2E
:103AA0000CF1050C1FFA8CFC18240423FAE60CF127
:103AB000050C1FFA8CFC00EB8C13BEF1D90F03F53B
:103AC000C87087D887E644F2DA32BEF1D90F01EB2D
:103AD00002007FF680AEAEF1D901264B89B2F631F5
:103AE00083FB01430B44DB111146C6E741F2BE1CC8
:103AF00089E601F59250BEF1D90F00F116007FF66C
:103B00006AAEAEF1D9021B4B92B2F63283FB0213BE
:103B10001344DB1141F20831AFE713339BB24FF48A
:103B2000BF714FF0100C02E70CF1050C1FFA8CFC72
:103B30004FF4BF71102564E641F20832BEF1D90F8F
:103B400001EB0200C7D830BD0CF1050C1FFA8CFC4C
:103B50004FF4BF741023A5E613339BB218214FF026
:103B6000040CE4E60CF1050C1FFA8CFC182104256A
:103B700047E600BFC9F9A98491F3530900B50829A4
:103B800083B040D0042935D0022945D005332821FF
:103B90004FF0080E90F805C003FB0E1E90F844107D
:103BA0000CF1FF3007283CD8DFE800F02A333B0453
:103BB0003B3B3B044FF0020CD301CA330EFB0232F5
:103BC0001D4B9A4232D81D4801F03F01A0FB023242
:103BD00041F040010020C2F3073361F30700C2F354
:103BE000071262F30F2043EA4C1363F3174003B04C
:103BF0005DF804FB05334FF4BF714FF0100EC9E7B9
:103C00004FF0000CD8E705334FF4C8714FF0400E69
:103C1000C0E74FF0010CCFE7053318214FF0040E39
:103C2000B8E740F2EF210620FDF74AFB40F28C7125
:103C30002D20FDF745FB00BFC3BF0300898888889E
:103C40002DE9F043314ED6F800C0DCF80F300B629E
:103C50004FF000089CF8153062F3070862F30F2854
:103C600015469CF814201B0443EA02239CF81320F9
:103C700013438B6283B00746BCF819000C461DF055
:103C800078FA3368E06181464946987D1DF07EFAF6
:103C9000336820864946B3F817001DF095FA33685B
:103CA000E062B3F81B20A284B3F81D20E28493F8ED
:103CB000242002F01F0284F8D920D3F81F000090BE
:103CC00093F823308DF80430694604F1CD001DF0DF
:103CD000EAFA336893F82430A4F870805B0984F81A
:103CE000D932FF2315F00C0F14BF0121002104F17C
:103CF000380084F872300EF08DF997F914102046D0
:103D00001DF020FA03B0BDE8F08300BF0C100020C6
:103D1000F8B544888C46054614F00401134618BFD4
:103D200005F177016246C07F0DF0DEFCC207044654
:103D300006D4A30712D484F00400C0F38000F8BDB9
:103D4000012385F86830E87F0DF0A6FD0368C5F80B
:103D500069308388A5F86D30A307ECD5084E01279C
:103D6000306885F8767005F177011DF081FB3068C9
:103D700039461DF091FB84F00400C0F38000F8BDCB
:103D80000C1000200B46132270B503F8032B0C46D1
:103D900000F109022930166855689168D2F80CC004
:103DA000C3F80CC0103282421E605D60996003F15E
:103DB0001003F0D112781A70A6880125A571294642
:103DC0003046FEF7DFF848B1E27842B100880DF0E6
:103DD000F7F929463046FEF7EBF820B970BDBDE88B
:103DE00070401EF088BD40F242212D20FDF768FA98
:103DF0001323F7B50B700023CB7083691A888A8070
:103E0000054601228A71D8690C461DF09FF9AB69FD
:103E100060839A8CA283DA8CE28393F8D92284F8A7
:103E20002020FF2284F821206A69128962845A7A4C
:103E3000012A04F10E012ED1DA7B02F0C002402AE1
:103E400029D1D3F80A20C4F80E20DB898B80154BCA
:103E50005868436D6361B0F858302383AF69BE780A
:103E6000E67100230622694654300093ADF8043011
:103E700019F068FC10B146F00206E671D7F803307D
:103E8000A360B7F80730A381A86940B103B0BDE8CB
:103E9000F0401EF030BD0023C4F80E30D6E703B06A
:103EA000F0BD00BF4C18002070B504460D46C8692F
:103EB00016461DF04BF9AB8CA4F8A630EB8CA4F899
:103EC000A830A4F8A400A37F95F8D92284F8AA20EA
:103ED0001BB194F86830012B24D00022C4F898203C
:103EE000A4F89C201F4B1B681A78C2F3801284F838
:103EF0009120082ED3F8032023D0C4F89E20B3F8D5
:103F00000730A4F8A23004F1920204F19101304686
:103F10000DF064FB08B394F8913043F0020384F889
:103F2000913070BD94F86E3003F0C003402BD4D1B3
:103F3000D4F86920B4F86D30C4F89820A4F89C3007
:103F4000D0E7C4F89220B3F80710A4F89610002325
:103F5000C4F89E30A4F8A23070BD40F64A412D202E
:103F6000FDF7AEF90C1000200B46162203F8032BC8
:103F7000D0F80920C1F80320CA7890F80DC083F862
:103F800004C01AB130F8AC3C1B0700D5704710B51F
:103F9000B1F8054001212046FDF7F4FF38B1008853
:103FA0000DF00EF901212046FEF702F800B910BD10
:103FB00040F286212D20FDF783F900BF2DE9F04363
:103FC0008A4D8B4AAB6A87B05B680292894A03923A
:103FD0000026894A6E71044680F8816002A8CDE906
:103FE00004232E82AE60AE7114F058FF14F032F943
:103FF00015F022F813F0B0FC804814F051FA804814
:1040000014F046FF04F13007304619F02FFD384612
:1040100002F0BCFC384602F0BFFC14F04BFA2179E8
:10402000252014F081F894F9140014F033FA217962
:10403000304614F02FFCE86028B901232B710020D2
:1040400007B0BDE8F08304F15001E06C1AF010FFF6
:1040500004F158010646E06C1AF031FF07463EB104
:1040600094F82480B8F1000F02D04FF0010903E06A
:10407000002F5CD1B846B946A37F13B963885907AE
:104080001BD5D4E918236FF000418B4208BFB2F171
:10409000FF3F54D01FF06FFBD4E91823904271EB1F
:1040A00003034CD3414601222046FFF731FE00288E
:1040B0004FD1B9F1000F40F09480002E08BF3E466A
:1040C00094F88330002B71D1002E6FD12868033013
:1040D0000DF0D0FA6388A874DB07B0D50023266AF8
:1040E000CDE900330122FF238DF8062085F820302A
:1040F00006F10A076846FDF77DFF00289FD1009C66
:10410000A642F7D0727A607A3B4604F10A011CF0AD
:10411000C4FE0028EED0A37885F82030D4F8032020
:10412000C5F82120374BB4F807209A8087E794F828
:104130002580B8F1000918BF4FF001099CE7B9F1DB
:10414000000FBAD0012211462046FFF7E1FD0028FA
:1041500047D00DF03DFA80461FF00DFB4FEA4813A3
:10416000B3EB08034FEAD86262F10002520242EA5E
:10417000D3525B0213EB080342F1000C4FEA8C1E92
:104180009A014EEA936ED31A6EEB0C0213EB0803FE
:1041900042F100021B1842EB0101C4E91831002E64
:1041A00008BF3E4694F88330002B8DD06388DA0632
:1041B0008CD4666CC6F30B260DF0DEFFC0F30B0348
:1041C0009E42F9D094F8463084F84500C0F30321AC
:1041D00023F00F030B43002284F8463084F8832039
:1041E00074E740F614212D20FDF76AF80C1000202A
:1041F000C1560000C1520000794F0000D6BE898E22
:10420000555555002D1000202DE9F047032984B0A5
:104210000446164640D090F8803023B10025284649
:1042200004B0BDE8F087052967D0464F97F81280A3
:104230004FF00109B8F1000F39D13378082B70D055
:10424000396894F86F2011F8030B04F17003C0F380
:1042500080101CF022FE3968054611F8030BC0F3EC
:1042600080101CF045FE82460DF028FB0746002812
:1042700030D13378082B4FD0002D34D063885907C4
:10428000CDD4002FCAD1B8F1000F53D1637D0BB14B
:104290004B45C3D10125C2E743889A07BED5294FB4
:1042A00097F812804FF00209B8F1000FC5D01CF04A
:1042B00029FE0828307034D002AA0DF107010DF054
:1042C0008DF9002838D09DF8070002A91EF0B6F934
:1042D0008046B2E7BAF1080F13D13378082B1BD010
:1042E0000027002DCAD1E57FED1A6388B5FA85F560
:1042F00059074FEA551592D4C3E74388DB0794D496
:104300008CE750460DF012F933780028E6D1082BDF
:1043100084D0002DB2D1E6E7638858073FF57FAF20
:10432000B1E7396811F8030BC0F380101EF086F96D
:10433000804685E7454672E740F63D712D20FCF743
:10434000BFFF00BF0C10002070B51A4904460222BE
:1043500084301DF032FC1849022204F1BC001DF02B
:104360002CFCB4F88E6094F88D500CF08DFD80B963
:10437000637C227884F8B820A4F8B96084F8B75038
:104380009BB90E4984F8BB30022204F1AE001DF047
:1043900014FC0B4B0B4A1B680021117143B1206ABE
:1043A00021460222BDE87040184794F84830E8E7FB
:1043B00070BD00BF853D000059360000693F000018
:1043C0006C0000200C1000202DE9F04FB0F802A086
:1043D0008DB01AF0030307460491934604D0012BD5
:1043E00002D0022B40F093830AF00702052A4FF017
:1043F000000500F0BB80022A1BD0002A40F0298271
:10440000BBF1000F40F09182B7F85420944E0AF0AF
:1044100023010A4300F080831AF020040ED13A7978
:1044200012F00C0F0CBF0122002202924FF0010982
:1044300008E0BBF1000F40F05A82894E00244FF093
:10444000010902941AF0400840F0D881CDF8049098
:10445000029A306862F3000564F34105019A69F33A
:10446000C30562F304154FF0000A68F34515A0F880
:1044700000A0BBF1000F40F0A781DA4607210593A9
:104480001CF0C6FF00230393059B64004FEA481805
:10449000194630681DF03EF9029B3068039A2343A9
:1044A00043EAC909019B49EA031949EA080848EAAD
:1044B0008A1A25F07B050AF07B0A4AEA050A51466A
:1044C0001DF02FF91AF0010F55465FFA8AF440F0FB
:1044D000BA80A1070ED5049B3068002B00F0AD8197
:1044E00007F17701062301221DF0EAF83068012167
:1044F0001CF0D2FF14F0040340F05C83220700F1AB
:104500004581A30600F1AE80BBF1010F40D0019BB5
:1045100063F30415A906ECB200F14F81620613D5CE
:10452000BBF1000F00F09B827D7997F8441097F95A
:10453000142028461CF07DFE01238DF81800062269
:10454000306806A91DF0BCF8F06948B140301EF093
:10455000A4FC28B1F36993F8BD30002B40F04A82E7
:10456000230600F122830DB0BDE8F08FBBF1000FF0
:104570003FF463AF01243A4E02944FF000081AF062
:10458000400A40F0BE81CDF804A04FF001095FE77A
:10459000B7F85430002BBAD07B889C07B7D430686A
:1045A0001DF0B4F8B7F85420348A431CDBB2141B56
:1045B000C3F1FF018C42A8BFDC43E4B2A2428046B3
:1045C0001FFA84F940F20C827B88D80700F1088238
:1045D0004AF01005039A30682946033C1DF0A1F803
:1045E000E4B208F104032344B7F848205FFA83F8E3
:1045F000F3681344B7F840211A4492B207F16901F5
:1046000007F136001CF067FE7A7987F84400082A23
:1046100000F0C481042A00F0C182022A00F0B782AF
:104620004FEAC803013A503300F03F00072A00F276
:104630006782DFE812F06A0265026502B90165026D
:1046400065026502B901306807F16901062300229D
:104650001DF036F897F8681030681CF010FF38E746
:104660000C100020F469D7F84031D7F84491029338
:10467000002C00F0FB8104F14008226E636E05926D
:10468000404604931EF009FCDDE9043268B1F1698B
:1046900091F8BD1049B14046CDE904231EF03AFF20
:1046A000DDE90423002800F02682206F94F810C072
:1046B000B649DDF808E031F81C10D6F814C01CEB40
:1046C0000E0849F10009B2EB0808B14A01F2E731DE
:1046D00063EB0909A2FB0131D7F83431890911EBE9
:1046E0000808A3EB0C0C49F100094FEAEC73C44530
:1046F00073EB09034FF000029DF81D3080F2D68065
:1047000062F38613B8F5161F8DF81D3079F100039A
:10471000C0F2B0819DF81D3062F345138DF81D3055
:10472000BDF81C306FF30C03ADF81C30994BA3FBA4
:104730000030800AADF81E00E27E9DF8243062F35E
:104740000403D4F8172008928DF824300CF0EAFB0B
:104750009DF8243060F347138DF824309DF81D3008
:104760006FF3C7138DF81D302268B4F85230CDF8BE
:10477000252022798DF8292062798DF82A200133AD
:10478000A2798DF82B20ADF82C30BDE67A6C30681C
:10479000C2F30B2262F30B0397F84620ADF81C30EE
:1047A0001209C3F3072362F307138DF81D300322A8
:1047B000022307A91CF084FFA3E630681223052218
:1047C00007A91CF07DFFA9E664004FEA48180721FD
:1047D00003931CF01DFEF069039B68B140301EF08E
:1047E0005CFB039B40B1F26992F8BD20002A0CBF2C
:1047F00000220A2203924BE6039049E6B7F85420C0
:10480000002A58D03A7912F00C0F0CBF4FF0010A71
:104810004FF0000A029A3068CDF8049062F3000568
:1048200064F3410569F3C30569F304154FF000080B
:104830006AF38615A0F8008020E607F170010623D0
:1048400001221CF03DFF97F86F1030681CF024FE29
:1048500050E6012A7FD0062A3FF488AE042A40F0B1
:10486000AE81BBF1000F00F01E814B4EB06930B13C
:10487000403001931EF011FB019B804648B9F0695E
:10488000002800F06381403001931EF006FB019B7D
:1048900080463A7912F00C0F0CBF002401241AF064
:1048A000200F0CBF22460022029268E623F060032C
:1048B0008DF81D3034E77A8802F02302002AA1D156
:1048C000B06930B1403001931EF0E7FA019B002837
:1048D00098D1F06930B1403001931EF0DEFA019BAF
:1048E00000288FD1002B8DD14FF0010A92E74FF0B5
:1048F000000801221AF0400A274E029244463FF473
:1049000042AE029A306842F0480545EA440545EA5D
:10491000481500224FF0010A64004FEA481805F0DC
:104920006B0502800192D14651E71B4EB06908B376
:10493000403001931EF0B1FA019B8046D0B11AF0CD
:10494000200440F0AD803A7912F00C0F14BF012220
:104950000022029213E6BBF1000F40F0C2809146A4
:104960003A790D4EA2F10202B2FA82F25209029293
:104970005C4667E5F069002800F0B18040300193A3
:104980001EF08BFA019B8046D9E700BFD8BF030019
:10499000D34D62105917B7D10C1000204FEA88137D
:1049A00003F5347300F03F000221874A03F5A57335
:1049B000A2FB03231A0B42EA411240F040001B09FC
:1049C0008DF818008DF81A208DF8193030680323FF
:1049D000042206A91CF074FE01231FFA84F9019336
:1049E000396D306822461CF0D0FE338A9944A6F80F
:1049F00010908CE5072130681CF081FE09223223DB
:104A000002704370F3697149D3F890308370F36991
:104A1000D3F89020120AC270F369B3F89230037190
:104A2000F36993F893304371F36993F8A13083717C
:104A3000F369D3F89420A1FB0232920AC271F369A0
:104A4000D3F89830A1FB03239B0A0372F369604AF1
:104A5000D3F89C30A2FB0323DB08437280E507F107
:104A600030003D7902F03CF8014660E5B469D4E9D4
:104A700018231AE6B8F5703F79F100039DF81D3050
:104A800027DB43F020038DF81D304FF49671BDF8FD
:104A90001C30B8FBF1F868F30C03ADF81C3045E6A8
:104AA000002402946BE5B7F854204A4E0AF0230123
:104AB0000A4355D01AF0200F3A7949D012F00C0F62
:104AC0004FF000020CBF0124002402924FF00109B4
:104AD000B8E462F345138DF81D301E21D7E78046F8
:104AE0002DE73A793B4E023A18BF01224FF00008F9
:104AF0000292444643E5206F821843F10003D5E556
:104B000040F2EF210620FCF7DBFB00214DE740F2ED
:104B100076612D20FCF7D4FBB06938B140300193A9
:104B20001EF0BBF9019B00287FF476ACF06938B128
:104B3000403001931EF0B1F9019B00287FF46CAC6A
:104B40004FF0000901224C4602927BE48046A0E629
:104B500012F00C0F0CBF0122002202921446B5E79E
:104B6000B06930B1403001931EF097F9019B0028E5
:104B7000A0D1F06930B1403001931EF08EF9019B55
:104B8000002897D101244FF0000902945AE44FEA1B
:104B900088032C3300F03F00012106E74FEA081399
:104BA00003F5E77300F03F00FEE640F6C3012D2059
:104BB000FCF786FB40F65E012D20FCF781FB40F2FE
:104BC00019712D20FCF77CFB898888885917B7D18B
:104BD000D34D62100C1000202DE9F047044684B03C
:104BE00090F844000D4613F065FC6179FF2013F046
:104BF0009BFAA5B98C4D28681CF008FC277906465D
:104C000004F1300001F05AFF082F5DD0042F00F0AE
:104C10000081022F7DD005362821082358E000208E
:104C200062794FF4A57114F0FBF86388980743D5B7
:104C3000D4F85890B4F85C80C3F3801600277A4DFE
:104C400028684FF0000AA0F800A007211CF0E0FB44
:104C5000286851461CF05EFDFB0043EA8617394682
:104C6000286852461CF05DFD390700F1B4802868C1
:104C70001CF0C1FD2B8AC0F1FE00A8EB03068642A2
:104C8000B4BFF6B2C6B23344984556DC63885A06C0
:104C900043D4298A2868324649441CF076FD288A84
:104CA00006442E82286814F00FF9072201232A7186
:104CB0006B7104B0BDE8F087D4F85090B4F854801C
:104CC000C3F380160127BAE705364FF4C8714023B5
:104CD00006FB0316EB68628803EBC011CA3100FBC8
:104CE00006111607696102D5AB68194469616279DA
:104CF000002013F01BFF002800F0908063889B07C2
:104D000040F0828094F8761001222046FFF75CFB89
:104D1000C8E7053618210423DAE794F9142094F83B
:104D2000441060791CF085FA01238DF808000622F2
:104D3000286802A91CF0C4FCABE747F01001002270
:104D400028681CF0EEFC28681CF055FD2E8AC0F186
:104D5000FE00A8EB06088045A8BFC6B22868B8BF09
:104D60005FFA88F61CF0D2FCB4F84830EA681A44BE
:104D7000B4F840311A44074604F1690192B204F1D3
:104D800036001CF0A8FABB190133617984F844009D
:104D9000DBB201222046FEF7F1FE8DF80C00C0F3D5
:104DA0000723C0F307408DF80E008DF80D30039BEC
:104DB000ADF808301B0C8DF80A30029BADF80430BA
:104DC00004221B0C8DF80630286803230DEB02012A
:104DD0001CF076FC5AE7636C2868C3F30B22BDF81D
:104DE0000C3062F30B0394F84620ADF80C30120936
:104DF000C3F3072362F307138DF80D300322022358
:104E000003A91CF05DFC32E76179012014F02EF952
:104E100078E705364FF4BF71102359E740F6B251D9
:104E20002D20FCF74DFA00BF0C100020F0B51F4DEF
:104E30000446002383B030302B826B7101F03EFEBC
:104E40006688F1062DD4B20721794CBFB4F85C70A6
:104E5000B4F85470FEF746FC0096014662790123CF
:104E60003846FEF769FCB4F84820AB680132A4F874
:104E700048200344AB600DF07FF90D4B94F8761099
:104E8000A3FB00235B0AAA68C3EB0323A0EB830008
:104E9000831800222046AB6003B0BDE8F040FFF766
:104EA00093BA2822314601F077FEDCE70C1000208F
:104EB0008180808038B52E4DB0F84830AA7C01330F
:104EC0000446A0F84830B2B900232B7194F8813021
:104ED0005BB9637C1BB1B4F848209A4212D22046D9
:104EE0000021BDE8384003F031B920460121BDE87A
:104EF000384003F02BB914F09FF812F02DFD002379
:104F0000AB74E1E70121204603F020F96388DB0759
:104F10000FD5236A1D880BF0B7FF68B9637C217831
:104F200084F8B8104322A4F8B95084F8B720A3B18C
:104F300011E00BF0A9FF00B138BD637C207884F844
:104F4000B8004FF0FF32432184F8B92084F8BA202A
:104F500084F8B7100BB194F8483084F8BB3004F1F2
:104F6000AE000449BDE8384002221CF026BE00BF56
:104F70000C100020693F000060B951B1074A137955
:104F8000916AD06A096903F18043043B51F82330E8
:104F900018477047014BD86AFFF78CBF0C100020F0
:104FA0002DE9F047032984B013D005290BD17E4B9E
:104FB0001B68002B62D0984780F00100C0B204B09B
:104FC000BDE8F0872046FFF775FF002004B0BDE87C
:104FD000F08708230DF1030204468DF80330FFF734
:104FE00013F90028EED0237C002B40F095806F4D04
:104FF000678828680026BB09068007214FF0010852
:1050000063F386181CF004FA314628681CF082FB12
:1050100004F169093246286841461CF082FB324699
:105020000623286849461CF04BFB94F86810286852
:105030001CF025FA28681CF0DEFBB4F85C30C0F1E7
:10504000FE008342B4BFDEB2C6B2B342C7F38017DC
:105050001FFA86FA14D8002F7FD1A16D2868324636
:105060001CF093FBA5F810A06179FF2013F05CF809
:10507000082328682B7113F027FFA6E718469EE740
:1050800048F0100A5146002228681CF04AFB2868A4
:105090001CF03CFBB4F84830EA681A44B4F84031DC
:1050A000A6F103081A44023E0644494692B204F1AE
:1050B00036001CF010F9F6B2617984F844003346EA
:1050C00001222046FEF75AFD8DF80C00C0F307239D
:1050D000C0F307408DF80E008DF80D30039BADF83E
:1050E00008301B0C8DF80A30029BADF80430042206
:1050F0001B0C0DEB020128688DF8063003231CF011
:10510000DFFA5FFA88F85146286800221CF009FB94
:105110001FFA88FA46469EE79DF8030094F8D030BF
:10512000002B7FF464AF237884F8D130082824D092
:1051300004F1D30204F1D2010CF050FA70B394F8E8
:10514000D2301A4D43F0020384F8D23018490222BB
:1051500004F1C8001CF031FD4AE794F9142094F8DA
:10516000441060791CF065F801238DF808000622D0
:10517000286802A91CF0A4FA6FE70C4D29680B46B9
:1051800013F8032BC2F3801284F8D220D1F8032045
:10519000C4F8D3209B88A4F8D730D7E740F6BA717B
:1051A0002D20FCF78DF800BF640000200C100020BB
:1051B000953600002DE9F04182B008230DF1070279
:1051C000052104468DF80730FFF71EF800286BD044
:1051D0006279216A2046FEF733FD216A002384F8B4
:1051E0008D300888A4F88E004FF6FF73FF2284F8F4
:1051F000AB20A4F8AC309DF807202046FEF754FE03
:10520000236A2D4A19881568A4F8C51093F8CD2093
:1052100084F8C72025B1184601222146A847236AF1
:10522000264D2868D0F80320C3F80320B0F80720E3
:10523000A3F807200678D4F820800027C6F380164C
:1052400088F80260082107801CF0E2F828683946D7
:105250001CF060FA28683A464FF003011CF061FA2E
:105260003A460623286804F169011CF029FA94F8EB
:10527000681028681CF003F9286831461CF00CF906
:1052800006230122286808F103011CF019FA61794C
:10529000FF2012F049FF286813F016FE09230120B1
:1052A0002B7102B0BDE8F0812046FFF703FE01201C
:1052B00002B0BDE8F08100BF6C0000200C1000209F
:1052C000F0B54D4C2379022B85B003D02379032B05
:1052D00040F08680E36A1D6A0DB195F8755088B973
:1052E000A37C1BB113F0A8FE12F036FBE06A02F0BB
:1052F00053FD40B313F0BCF9A36A9B6805B0BDE849
:10530000F0401847216893F8682011F8096B693359
:10531000F0091BF0C2FD0028E2D006F00F06052EB2
:10532000206827D029461CF0E0F80028D8D023793F
:10533000E06A022B0DD02379032B0AD040F6C54139
:105340002D20FBF7BDFFE06A05B0BDE8F040FFF798
:10535000B1BD2379A26A03F180435269023B314611
:1053600052F823309847A37C002B3ED10028BDD1B2
:1053700005B0F0BD90F8243003F01F03102BD1D9F5
:10538000E76AFB7C002BCDD008230DF10F023146DC
:1053900038468DF80F30FEF737FF0028A0D097F879
:1053A000E130002B9CD1216807F1E202CB1C2331B4
:1053B0001E685D689868D3F80CC0C2F80CC0103342
:1053C0008B4216605560906002F11002F0D11B888C
:1053D00013800A49022207F1D9001CF0EEFB7FE797
:1053E00040F6EC412D20FBF76BFF019013F024FEFB
:1053F00012F0B2FA0198B9E70C100020AD360000A7
:105400002DE9F04104460E46002940F08E80704D93
:10541000286894F87670002303806388103B0D2B76
:1054200000F2C780DFE803F07CC5771EC507C5C55D
:10543000C5C5C5C5C50701211BF0EAFF286803786B
:1054400023F0200343F020030370002F00F094802A
:1054500004F177011CF00CF8286801211CF01CF8FD
:10546000286809E000211BF0D3FF2868037823F0A7
:10547000200343F02003037004F169011BF0EAFFED
:1054800094F8681028681BF0FAFF638823F008037B
:105490009BB2152B05D094F85420216D28681CF080
:1054A00005F8286813F010FD04232B71F6B163880A
:1054B000102B6CD004F130084046EF6801F0FEFA82
:1054C0000646404601F0D6FA013E301A618828228D
:1054D000C0B201F08BFB63881B0707445CD42279C0
:1054E0003946002013F022FB00286CD06388103B63
:1054F0000D2B63D8DFE803F00D62070762076262D5
:1055000062626262620721790120BDE8F04113F016
:10551000ADBDBDE8F08106211BF07AFF2868ABE73E
:1055200002211BF075FF2868A6E700F13007384616
:1055300001F0A0FAA8B963881A0735D5384601F0FA
:10554000BDFA0546384601F095FA281AC0B2204D3A
:1055500001F046FBAB6803443846AB6001F016FA35
:1055600000E01B4D384601F017FA12F0A3FF217935
:10557000252012F0D9FD4BE704F170011BF078FFF4
:10558000286894F86F101BF087FF286874E721796A
:10559000002012F09DFFA9E7AB681F4401F0F8FA64
:1055A0003844C4F818019AE72046BDE8F041FFF7F7
:1055B00081BC40F249612D20FBF782FE40F6755117
:1055C0002D20FBF77DFE40F661512D20FBF778FE84
:1055D0000C10002038B54388102B1FD0124DAB7C27
:1055E000044663B9286813F06FFC608810F004006B
:1055F0000BD0002013F0D2FC02232B7138BD12F027
:105600008DF9402013F00CFDECE7217913F02EFD0D
:10561000002013F0C3FC02232B7138BDBDE83840D5
:105620000121FFF7EDBE00BF0C1000200121FFF7A4
:10563000E7BE00BF0121FFF7E3BE00BF38B54388D6
:105640009A0704460CD4DB070AD41C4AB0F854303D
:10565000128A9A422DD0BDE838400121FFF7BCBA2A
:1056600000206179154D13F001FD6388617913F015
:10567000020F14BF0C20222012F056FDAB7C032237
:105680002A715BB9607910F00C0018BF282013F064
:1056900085FC2868BDE8384013F016BC12F03EF9CE
:1056A000637913F00C0F14BF4520402013F0B8FCB1
:1056B000E8E7BDE83840FFF7FDBB00BF0C10002055
:1056C00010B5164CA37CF3B9E06A02F065FBA8B1F3
:1056D000E06A438803F018038BB12379022B02D0D0
:1056E0002379032B14D12379A26A03F18043D26872
:1056F000023BBDE8104052F823301847E06ABDE88D
:105700001040FFF7D7BB13F097FC12F025F9DBE749
:1057100040F6F4312D20FBF7D3FD00BF0C10002024
:1057200030B50B6883B0002B51D00C4605461846A7
:1057300001F0C4F994F810E0627CBEF1040F3BD094
:10574000254B264933F81E30042A03F2E73323D0D1
:10575000A1FB03134FEA931CBEF1080F00F1FF33C6
:105760004FEAC31325D0BEF1020F14BFF021602110
:10577000634401FB0031A388009328460023FDF712
:10578000DBFFD4E90223D730824273F100032CBF40
:105790000120002003B030BDA1FB03234FEA931C7E
:1057A000BEF1080F00F1FF334FF008024FEAC313B8
:1057B000D9D14FF4D261DBE7431E042A4FEAC31369
:1057C0004FF02C0CF5D108224FF4D261D0E740F213
:1057D000FD312D20FBF774FDD8BF0300D34D6210BF
:1057E0002DE9F04F90F8803087B0002B3DD14588EF
:1057F00015F00105044638D0774E03F0FF0AB37C5C
:10580000002B40F0C680316811F8030BC0F3801004
:105810001CF014FF4FF008098346316894F86F209C
:1058200011F8030B04F17003C0F380101BF035FB7B
:105830003168074611F8030BC0F380101BF058FBCA
:1058400080460CF03BF8019018B1B8F1080F40F019
:105850008680B9F1080F00F0AF80638857B95A0706
:1058600040F18A80E37F4B4506D00025284607B0EB
:10587000BDE8F08F5B077FD53168584B11F8030BFB
:1058800096F82020C0F380101BF007FB0746002885
:10589000EBD1216A33681A7891F8CD3003EA5213BC
:1058A00003F0010381F8CD3001222046FEF7C8F94C
:1058B000216A84F88D70FF23088884F8AB304FF696
:1058C000FF73A4F8AC304A46A4F88E002046FEF7D9
:1058D000EBFA4349022204F184001CF06EF9236ABA
:1058E00040491A88A4F8C52093F8CD3084F8C73011
:1058F000022204F1BC001CF060F9236A1F880BF03F
:10590000C3FA88B9637C2278A4F8B97084F8B70028
:1059100084F8B820002B56D1334984F8BB300222DA
:1059200004F1AE001CF049F9304B1B6800223271C3
:1059300013B1206A214698473368226AD3F80310CE
:10594000C2F80310B3F80710A2F807101B78226AF8
:10595000C3F380132846937007B0BDE8F08F40462C
:105960000BF0E4FD019B00287FF473AFB9F1080F41
:105970003FF47BAF9A4670E7BAF1000F7FF475AF42
:10598000BBF1000F7FF478AF637D012B3FF66DAF65
:1059900072E71BF0B7FA082881463FF434AF04AA37
:1059A0000DF10F010BF01AFE80B19DF80F0004A954
:1059B0001CF044FE834630E763885907E0D5002F8A
:1059C0003FF453AF58E794F84830A5E740F63D71EF
:1059D0002D20FBF775FC00BF0C1000202D100020BF
:1059E000853D000059360000693F00006C00002032
:1059F00038B5344DB0F85C302A8A9A4205D001217E
:105A0000FFF7EAF808232B7138BDB0F84830AA7CBC
:105A100001330446A0F84830B2B900232B7194F842
:105A200081305BB9637C1BB1B4F848209A4212D232
:105A300020460021BDE8384002F088BB2046012105
:105A4000BDE8384002F082BB13F0F6FA11F084FF93
:105A50000023AB74E1E70121204602F077FB638865
:105A6000DB071DD40BF010FA0028CDD1637C207821
:105A700084F8B8004FF0FF32432184F8B92084F84D
:105A8000BA2084F8B7100BB194F8483084F8BB30D2
:105A900004F1AE000C49BDE8384002221CF08DB87C
:105AA000236A1D880BF0F0F90028ADD1637C2178C2
:105AB00084F8B8104322A4F8B95084F8B720002B1A
:105AC000E4D0E1E70C100020693F00002DE9F04729
:105AD000032984B00CD0052946D1684B1C681CB141
